{
  "contractName": "LinearStrategy",
  "abi": [
    {
      "constant": true,
      "inputs": [
        {
          "name": "initialAmount",
          "type": "uint256"
        },
        {
          "name": "reservePrice",
          "type": "uint256"
        },
        {
          "name": "start",
          "type": "uint256"
        },
        {
          "name": "end",
          "type": "uint256"
        },
        {
          "name": "currentBlockNumber",
          "type": "uint256"
        }
      ],
      "name": "getPrice",
      "outputs": [
        {
          "name": "",
          "type": "uint256"
        }
      ],
      "payable": false,
      "stateMutability": "pure",
      "type": "function"
    }
  ],
  "bytecode": "0x608060405234801561001057600080fd5b50610109806100206000396000f3fe6080604052348015600f57600080fd5b506004361060285760003560e01c8063853b752814602d575b600080fd5b607e600480360360a0811015604157600080fd5b8101908080359060200190929190803590602001909291908035906020019092919080359060200190929190803590602001909291905050506094565b6040518082815260200191505060405180910390f35b60008282111560a257600080fd5b82841060ad57600080fd5b600084840390506000818789038160c057fe5b04905060008685039050818102890393505050509594505050505056fea165627a7a723058206d6e17c676a1d5a9fa8d3e1c0b37555105d2b9661d9a1457b4328a9dfeba4e780029",
  "source": "pragma solidity >= 0.4 .21 < 0.6 .0;\n\nimport \"./IDecrease.sol\";\n\ncontract LinearStrategy is IDecrease {\n\n    function getPrice(uint initialAmount, uint reservePrice, uint start, uint end, uint currentBlockNumber) pure external returns(uint) {\n\n        require(currentBlockNumber <= end);\n        require(start < end);\n\n        uint blocks = end - start;\n\n        uint decreasePerBlock = (initialAmount - reservePrice) / blocks;\n\n        uint elapsedBlocks = currentBlockNumber - start;\n\n        return initialAmount - elapsedBlocks * decreasePerBlock;\n    }\n\n}",
  "sourcePath": "/Users/giacomodeliberali/Code/personal/unipi/smart-auctions/contracts/dutch/LinearStrategy.sol",
  "compiler": {
    "name": "solc",
    "version": "0.5.8+commit.23d335f2.Emscripten.clang"
  },
  "schemaVersion": "3.0.11",
  "updatedAt": "2019-07-14T16:27:54.767Z",
  "devdoc": {
    "methods": {}
  },
  "userdoc": {
    "methods": {}
  }
}